:0200000080334B
:100035009000C5740075A0007590FFC290209404CF
:10004500740011C1209504740111C1209604740235
:1000550011C1209704740311C1D290C29120940458
:10006500740411C1209504740511C1209604740609
:1000750011C1209704740711C1D291C29220940432
:10008500740811C1209504740911C1209604740ADD
:1000950011C1209704740B11C1D292C2932094040C
:1000A500740C11C1209504740D11C1209604740EB1
:1000B50011C1209783740F11C102003D93F5A02251
:1000C500077F6F71666D7D79065B4F5E773F7C3983
:00000001FF
